{
  "_format": "hh-sol-artifact-1",
  "contractName": "BondingNOM",
  "sourceName": "contracts/BondingNOM.sol",
  "abi": [
    {
      "inputs": [
        {
          "internalType": "address",
          "name": "NOMContAddr",
          "type": "address"
        }
      ],
      "stateMutability": "nonpayable",
      "type": "constructor"
    },
    {
      "anonymous": false,
      "inputs": [
        {
          "indexed": true,
          "internalType": "address",
          "name": "previousOwner",
          "type": "address"
        },
        {
          "indexed": true,
          "internalType": "address",
          "name": "newOwner",
          "type": "address"
        }
      ],
      "name": "OwnershipTransferred",
      "type": "event"
    },
    {
      "anonymous": false,
      "inputs": [
        {
          "indexed": true,
          "internalType": "address",
          "name": "_by",
          "type": "address"
        },
        {
          "indexed": false,
          "internalType": "uint256",
          "name": "amountNOM",
          "type": "uint256"
        },
        {
          "indexed": false,
          "internalType": "uint256",
          "name": "amountETH",
          "type": "uint256"
        },
        {
          "indexed": false,
          "internalType": "uint256",
          "name": "price",
          "type": "uint256"
        },
        {
          "indexed": false,
          "internalType": "uint256",
          "name": "supply",
          "type": "uint256"
        },
        {
          "indexed": false,
          "internalType": "string",
          "name": "buyOrSell",
          "type": "string"
        },
        {
          "indexed": false,
          "internalType": "int256",
          "name": "slippage",
          "type": "int256"
        }
      ],
      "name": "Transaction",
      "type": "event"
    },
    {
      "inputs": [
        {
          "internalType": "uint256",
          "name": "supplyTop",
          "type": "uint256"
        },
        {
          "internalType": "uint256",
          "name": "supplyBot",
          "type": "uint256"
        }
      ],
      "name": "NOMSupToETH",
      "outputs": [
        {
          "internalType": "uint256",
          "name": "",
          "type": "uint256"
        }
      ],
      "stateMutability": "view",
      "type": "function"
    },
    {
      "inputs": [],
      "name": "NOMTokenContract",
      "outputs": [
        {
          "internalType": "address",
          "name": "",
          "type": "address"
        }
      ],
      "stateMutability": "view",
      "type": "function"
    },
    {
      "inputs": [],
      "name": "a",
      "outputs": [
        {
          "internalType": "uint256",
          "name": "",
          "type": "uint256"
        }
      ],
      "stateMutability": "view",
      "type": "function"
    },
    {
      "inputs": [],
      "name": "burnedNOM",
      "outputs": [
        {
          "internalType": "uint256",
          "name": "",
          "type": "uint256"
        }
      ],
      "stateMutability": "view",
      "type": "function"
    },
    {
      "inputs": [
        {
          "internalType": "uint256",
          "name": "estAmountNOM",
          "type": "uint256"
        },
        {
          "internalType": "uint256",
          "name": "allowSlip",
          "type": "uint256"
        }
      ],
      "name": "buyNOM",
      "outputs": [],
      "stateMutability": "payable",
      "type": "function"
    },
    {
      "inputs": [
        {
          "internalType": "uint256",
          "name": "amountETH",
          "type": "uint256"
        }
      ],
      "name": "buyQuoteETH",
      "outputs": [
        {
          "internalType": "uint256",
          "name": "",
          "type": "uint256"
        }
      ],
      "stateMutability": "view",
      "type": "function"
    },
    {
      "inputs": [
        {
          "internalType": "uint256",
          "name": "amountNOM",
          "type": "uint256"
        }
      ],
      "name": "buyQuoteNOM",
      "outputs": [
        {
          "internalType": "uint256",
          "name": "",
          "type": "uint256"
        }
      ],
      "stateMutability": "view",
      "type": "function"
    },
    {
      "inputs": [
        {
          "internalType": "uint256",
          "name": "x",
          "type": "uint256"
        }
      ],
      "name": "cubrtu",
      "outputs": [
        {
          "internalType": "uint256",
          "name": "",
          "type": "uint256"
        }
      ],
      "stateMutability": "pure",
      "type": "function"
    },
    {
      "inputs": [],
      "name": "decimals",
      "outputs": [
        {
          "internalType": "uint8",
          "name": "",
          "type": "uint8"
        }
      ],
      "stateMutability": "view",
      "type": "function"
    },
    {
      "inputs": [
        {
          "internalType": "int128",
          "name": "fixed64",
          "type": "int128"
        }
      ],
      "name": "f64ToTok",
      "outputs": [
        {
          "internalType": "uint256",
          "name": "",
          "type": "uint256"
        }
      ],
      "stateMutability": "view",
      "type": "function"
    },
    {
      "inputs": [],
      "name": "getBondPrice",
      "outputs": [
        {
          "internalType": "uint256",
          "name": "",
          "type": "uint256"
        }
      ],
      "stateMutability": "view",
      "type": "function"
    },
    {
      "inputs": [],
      "name": "getNOMAddr",
      "outputs": [
        {
          "internalType": "address",
          "name": "",
          "type": "address"
        }
      ],
      "stateMutability": "view",
      "type": "function"
    },
    {
      "inputs": [],
      "name": "getSupplyNOM",
      "outputs": [
        {
          "internalType": "uint256",
          "name": "",
          "type": "uint256"
        }
      ],
      "stateMutability": "view",
      "type": "function"
    },
    {
      "inputs": [],
      "name": "owner",
      "outputs": [
        {
          "internalType": "address",
          "name": "",
          "type": "address"
        }
      ],
      "stateMutability": "view",
      "type": "function"
    },
    {
      "inputs": [
        {
          "internalType": "uint256",
          "name": "_supplyNOM",
          "type": "uint256"
        }
      ],
      "name": "priceAtSupply",
      "outputs": [
        {
          "internalType": "uint256",
          "name": "",
          "type": "uint256"
        }
      ],
      "stateMutability": "view",
      "type": "function"
    },
    {
      "inputs": [],
      "name": "priceBondCurve",
      "outputs": [
        {
          "internalType": "uint256",
          "name": "",
          "type": "uint256"
        }
      ],
      "stateMutability": "view",
      "type": "function"
    },
    {
      "inputs": [],
      "name": "renounceOwnership",
      "outputs": [],
      "stateMutability": "nonpayable",
      "type": "function"
    },
    {
      "inputs": [
        {
          "internalType": "uint256",
          "name": "amountNOM",
          "type": "uint256"
        },
        {
          "internalType": "uint256",
          "name": "estAmountETH",
          "type": "uint256"
        },
        {
          "internalType": "uint256",
          "name": "allowSlip",
          "type": "uint256"
        }
      ],
      "name": "sellNOM",
      "outputs": [],
      "stateMutability": "payable",
      "type": "function"
    },
    {
      "inputs": [
        {
          "internalType": "uint256",
          "name": "amountNOM",
          "type": "uint256"
        }
      ],
      "name": "sellQuoteNOM",
      "outputs": [
        {
          "internalType": "uint256",
          "name": "",
          "type": "uint256"
        }
      ],
      "stateMutability": "view",
      "type": "function"
    },
    {
      "inputs": [
        {
          "internalType": "uint256",
          "name": "price",
          "type": "uint256"
        }
      ],
      "name": "supplyAtPrice",
      "outputs": [
        {
          "internalType": "uint256",
          "name": "",
          "type": "uint256"
        }
      ],
      "stateMutability": "view",
      "type": "function"
    },
    {
      "inputs": [],
      "name": "supplyNOM",
      "outputs": [
        {
          "internalType": "uint256",
          "name": "",
          "type": "uint256"
        }
      ],
      "stateMutability": "view",
      "type": "function"
    },
    {
      "inputs": [],
      "name": "teamBalance",
      "outputs": [
        {
          "internalType": "uint256",
          "name": "",
          "type": "uint256"
        }
      ],
      "stateMutability": "view",
      "type": "function"
    },
    {
      "inputs": [
        {
          "internalType": "uint256",
          "name": "token",
          "type": "uint256"
        }
      ],
      "name": "tokToF64",
      "outputs": [
        {
          "internalType": "int128",
          "name": "",
          "type": "int128"
        }
      ],
      "stateMutability": "view",
      "type": "function"
    },
    {
      "inputs": [
        {
          "internalType": "address",
          "name": "newOwner",
          "type": "address"
        }
      ],
      "name": "transferOwnership",
      "outputs": [],
      "stateMutability": "nonpayable",
      "type": "function"
    },
    {
      "inputs": [],
      "name": "withdraw",
      "outputs": [
        {
          "internalType": "bool",
          "name": "success",
          "type": "bool"
        }
      ],
      "stateMutability": "nonpayable",
      "type": "function"
    }
  ],
  "bytecode": "0x60806040526000600381905560045560058054601260ff19909116179081905562000042906302faf0809060ff16600a0a62000100602090811b6200141f17901c565b6006553480156200005257600080fd5b506040516200201938038062002019833981810160405260208110156200007857600080fd5b505160006200008662000167565b600080546001600160a01b0319166001600160a01b0383169081178255604051929350917f8be0079c531659141344cd1fd0a4f28419497f9722a3daafe3b4186f6b6457e0908290a350600280546001600160a01b039092166001600160a01b03199283168117909155600180549092161790556200016b565b600082620001115750600062000161565b828202828482816200011f57fe5b04146200015e5760405162461bcd60e51b815260040180806020018281038252602181526020018062001ff86021913960400191505060405180910390fd5b90505b92915050565b3390565b611e7d806200017b6000396000f3fe6080604052600436106101655760003560e01c80635700f200116100d15780638da5cb5b1161008a578063bc0f023c11610064578063bc0f023c14610453578063daff394a14610468578063eb208d6f14610492578063f2fde38b146104bb57610165565b80638da5cb5b146103f95780638e117f6d1461040e578063afea58521461042357610165565b80635700f2001461034e57806359eaced01461037b578063715018a6146103905780637abe7448146103a55780637eda9347146103cf57806389e85217146103e457610165565b806329b57f881161012357806329b57f881461025e578063313ce5671461029f5780633542a097146102ca5780633c4df4fc146102fb5780633ccfd60b146103105780634477392b1461033957610165565b80627f39c71461016a57806302689ad6146101a6578063080d1f82146101d05780630dbe671f146101f557806325572aa41461020a5780632890447514610234575b600080fd5b34801561017657600080fd5b506101946004803603602081101561018d57600080fd5b50356104ee565b60408051918252519081900360200190f35b3480156101b257600080fd5b50610194600480360360208110156101c957600080fd5b5035610684565b6101f3600480360360408110156101e657600080fd5b508035906020013561071c565b005b34801561020157600080fd5b5061019461094d565b34801561021657600080fd5b506101946004803603602081101561022d57600080fd5b5035610953565b34801561024057600080fd5b506101946004803603602081101561025757600080fd5b50356109db565b34801561026a57600080fd5b506102886004803603602081101561028157600080fd5b5035610a57565b60408051600f9290920b8252519081900360200190f35b3480156102ab57600080fd5b506102b4610a6e565b6040805160ff9092168252519081900360200190f35b3480156102d657600080fd5b506102df610a77565b604080516001600160a01b039092168252519081900360200190f35b34801561030757600080fd5b50610194610a86565b34801561031c57600080fd5b50610325610a8c565b604080519115158252519081900360200190f35b34801561034557600080fd5b50610194610b9d565b34801561035a57600080fd5b506101946004803603602081101561037157600080fd5b5035600f0b610c2a565b34801561038757600080fd5b506102df610c41565b34801561039c57600080fd5b506101f3610c50565b3480156103b157600080fd5b50610194600480360360208110156103c857600080fd5b5035610d0e565b3480156103db57600080fd5b50610194610e05565b3480156103f057600080fd5b50610194610e0b565b34801561040557600080fd5b506102df610e41565b34801561041a57600080fd5b50610194610e50565b34801561042f57600080fd5b506101946004803603604081101561044657600080fd5b5080359060200135610e56565b34801561045f57600080fd5b50610194610f8e565b34801561047457600080fd5b506101946004803603602081101561048b57600080fd5b5035610f94565b6101f3600480360360608110156104a857600080fd5b5080359060208101359060400135610ff6565b3480156104c757600080fd5b506101f3600480360360208110156104de57600080fd5b50356001600160a01b031661130b565b6000816104fd5750600061067f565b816001600160901b82106105165760909190911c9060301b5b690100000000000000000082106105325760489190911c9060181b5b64100000000082106105495760249190911c90600c1b5b62040000821061055e5760129190911c9060061b5b611000821061057257600c9190911c9060041b5b61020082106105865760099190911c9060031b5b604082106105995760069190911c9060021b5b600882106105a55760011b5b6003816002026002830a86816105b757fe5b0401816105c057fe5b0490506003816002026002830a86816105d557fe5b0401816105de57fe5b0490506003816002026002830a86816105f357fe5b0401816105fc57fe5b0490506003816002026002830a868161061157fe5b04018161061a57fe5b0490506003816002026002830a868161062f57fe5b04018161063857fe5b0490506003816002026002830a868161064d57fe5b04018161065657fe5b0490506003816002026002830a868161066b57fe5b04018161067457fe5b04925061067f915050565b919050565b6000816106935750600061067f565b61069b610b9d565b600354038211156106dd5760405162461bcd60e51b8152600401808060200182810382526038815260200180611cc76038913960400191505060405180910390fd5b6003546000906106ed9084611478565b905060006106fd60035483610e56565b905061071461070d8260646114d5565b8290611478565b949350505050565b6000341161075b5760405162461bcd60e51b815260040180806020018281038252602a815260200180611d91602a913960400191505060405180910390fd5b60035460065461076a91611478565b8211156107a85760405162461bcd60e51b8152600401808060200182810382526036815260200180611e126036913960400191505060405180910390fd5b60006107b334610d0e565b90508083111561082f576107d3826107cd856127106114d5565b9061141f565b6107dd8483611478565b1061082f576040805162461bcd60e51b815260206004820152601d60248201527f536c6970706167652067726561746572207468616e20616c6c6f776564000000604482015290519081900360640190fd5b60035481840390610840908361153c565b600381905561084e90610f94565b60049081556001546040805163a9059cbb60e01b8152339381019390935260248301859052516001600160a01b039091169163a9059cbb9160448083019260209291908290030181600087803b1580156108a757600080fd5b505af11580156108bb573d6000803e3d6000fd5b505050506040513d60208110156108d157600080fd5b5050600454600380546040805186815234602082015280820194909452606084019190915260a0830184905260c0608084018190528301919091526262757960e81b60e08301525133917fa70108fc37a77e4fb183df412c5ec85d9c12294d6f4c1634c5d2a594a44db9aa91908190036101000190a250505050565b60065481565b6000816109625750600061067f565b670de0b6b3a76400008211156109a95760405162461bcd60e51b8152600401808060200182810382526033815260200180611c646033913960400191505060405180910390fd5b6109d56109d06109c06109bb85610a57565b611596565b6109cb600654610a57565b6115b8565b610c2a565b92915050565b6000816109ea5750600061067f565b6003546006546109f991611478565b821115610a375760405162461bcd60e51b8152600401808060200182810382526038815260200180611cc76038913960400191505060405180910390fd5b600354600090610a47908461153c565b905060006106fd82600354610e56565b6005546000906109d590839060ff16600a0a6115ef565b60055460ff1681565b6002546001600160a01b031681565b60035481565b6000610a96611626565b6001600160a01b0316610aa7610e41565b6001600160a01b031614610b02576040805162461bcd60e51b815260206004820181905260248201527f4f776e61626c653a2063616c6c6572206973206e6f7420746865206f776e6572604482015290519081900360640190fd5b600354610b3f5760405133904780156108fc02916000818181858888f19350505050158015610b35573d6000803e3d6000fd5b5060019050610b9a565b6000610b54600354610b4f610b9d565b610e56565b90506000610b624783611478565b604051909150339082156108fc029083906000818181858888f19350505050158015610b92573d6000803e3d6000fd5b506001925050505b90565b6000610c25600160009054906101000a90046001600160a01b03166001600160a01b03166318160ddd6040518163ffffffff1660e01b815260040160206040518083038186803b158015610bf057600080fd5b505afa158015610c04573d6000803e3d6000fd5b505050506040513d6020811015610c1a57600080fd5b505160065490611478565b905090565b6005546000906109d590839060ff16600a0a61162a565b6002546001600160a01b031690565b610c58611626565b6001600160a01b0316610c69610e41565b6001600160a01b031614610cc4576040805162461bcd60e51b815260206004820181905260248201527f4f776e61626c653a2063616c6c6572206973206e6f7420746865206f776e6572604482015290519081900360640190fd5b600080546040516001600160a01b03909116907f8be0079c531659141344cd1fd0a4f28419497f9722a3daafe3b4186f6b6457e0908390a3600080546001600160a01b0319169055565b600081610d1d5750600061067f565b6000610d34610d2d8460646114d5565b8490611478565b90506000610db6610db1610d5560065460065461141f90919063ffffffff16565b610dac6109d0610d71610d686003611692565b6109cb89610a57565b610da7610d9c610d95610d85600354610a57565b610d90600654610a57565b6116b0565b6002611702565b6109cb600354610a57565b611925565b61141f565b6104ee565b9050600654811115610df95760405162461bcd60e51b8152600401808060200182810382526026815260200180611c3e6026913960400191505060405180910390fd5b60035490039392505050565b60045481565b600060035460001415610e1f575047610b9a565b6000610e2f600354610b4f610b9d565b9050610e3b4782611478565b91505090565b6000546001600160a01b031690565b60045490565b6000818303610e67575060006109d5565b818311610ea55760405162461bcd60e51b8152600401808060200182810382526022815260200180611d206022913960400191505060405180910390fd5b600654831115610ee65760405162461bcd60e51b815260040180806020018281038252602e815260200180611d63602e913960400191505060405180910390fd5b600354600654610ef591611478565b610eff8484611478565b1115610f3c5760405162461bcd60e51b815260040180806020018281038252602e815260200180611de4602e913960400191505060405180910390fd5b610f876109d0610f5a610f50600654610a57565b610d906003611692565b6109cb610f73610f6c610d8589610a57565b6003611702565b610f82610f6c610d8589610a57565b611958565b9392505050565b60035490565b600081610fa35750600061067f565b600654821115610fe45760405162461bcd60e51b8152600401808060200182810382526030815260200180611c976030913960400191505060405180910390fd5b6109d56109d0610d95610d8585610a57565b600083116110355760405162461bcd60e51b8152600401808060200182810382526021815260200180611d426021913960400191505060405180910390fd5b61103d610b9d565b6003540383111561107f5760405162461bcd60e51b8152600401808060200182810382526038815260200180611cc76038913960400191505060405180910390fd5b60015460408051636eb1769f60e11b815233600482015230602482015290516001600160a01b039092169163dd62ed3e916044808201926020929091908290030181600087803b1580156110d257600080fd5b505af11580156110e6573d6000803e3d6000fd5b505050506040513d60208110156110fc57600080fd5b505183111561113c5760405162461bcd60e51b8152600401808060200182810382526029815260200180611dbb6029913960400191505060405180910390fd5b600061114784610684565b9050808311156111bd57611161826107cd856127106114d5565b61116b8483611478565b106111bd576040805162461bcd60e51b815260206004820152601d60248201527f536c6970706167652067726561746572207468616e20616c6c6f776564000000604482015290519081900360640190fd5b600154604080516323b872dd60e01b8152336004820152306024820152604481018790529051838603926001600160a01b0316916323b872dd9160648083019260209291908290030181600087803b15801561121857600080fd5b505af115801561122c573d6000803e3d6000fd5b505050506040513d602081101561124257600080fd5b50506003546112519086611478565b600381905561125f90610f94565b6004818155600354604080518981526020810187905280820194909452606084019190915260a0830184905260c060808401819052830191909152631cd95b1b60e21b60e08301525133917fa70108fc37a77e4fb183df412c5ec85d9c12294d6f4c1634c5d2a594a44db9aa91908190036101000190a2604051339083156108fc029084906000818181858888f19350505050158015611303573d6000803e3d6000fd5b505050505050565b611313611626565b6001600160a01b0316611324610e41565b6001600160a01b03161461137f576040805162461bcd60e51b815260206004820181905260248201527f4f776e61626c653a2063616c6c6572206973206e6f7420746865206f776e6572604482015290519081900360640190fd5b6001600160a01b0381166113c45760405162461bcd60e51b8152600401808060200182810382526026815260200180611c186026913960400191505060405180910390fd5b600080546040516001600160a01b03808516939216917f8be0079c531659141344cd1fd0a4f28419497f9722a3daafe3b4186f6b6457e091a3600080546001600160a01b0319166001600160a01b0392909216919091179055565b60008261142e575060006109d5565b8282028284828161143b57fe5b0414610f875760405162461bcd60e51b8152600401808060200182810382526021815260200180611cff6021913960400191505060405180910390fd5b6000828211156114cf576040805162461bcd60e51b815260206004820152601e60248201527f536166654d6174683a207375627472616374696f6e206f766572666c6f770000604482015290519081900360640190fd5b50900390565b600080821161152b576040805162461bcd60e51b815260206004820152601a60248201527f536166654d6174683a206469766973696f6e206279207a65726f000000000000604482015290519081900360640190fd5b81838161153457fe5b049392505050565b600082820183811015610f87576040805162461bcd60e51b815260206004820152601b60248201527f536166654d6174683a206164646974696f6e206f766572666c6f770000000000604482015290519081900360640190fd5b60008082600f0b12156115a857600080fd5b6109d5604083600f0b901b61198b565b6000600f83810b9083900b0260401d60016001607f1b031981128015906115e6575060016001607f1b038113155b610f8757600080fd5b6000816115fb57600080fd5b60006116078484611acd565b905060016001607f1b036001600160801b0382161115610f8757600080fd5b3390565b600081611639575060006109d5565b600083600f0b121561164a57600080fd5b600f83900b6001600160801b038316810260401c90608084901c026001600160c01b0381111561167957600080fd5b60401b811981111561168a57600080fd5b019392505050565b6000677fffffffffffffff8211156116a957600080fd5b5060401b90565b600081600f0b600014156116c357600080fd5b600082600f0b604085600f0b901b816116d857fe5b05905060016001607f1b031981128015906115e6575060016001607f1b03811315610f8757600080fd5b600080600084600f0b12801561171b5750826001166001145b905060008085600f0b1261172f5784611734565b846000035b6001600160801b03169050600160801b600160401b82116117c957603f82901b91505b84156117c157600185161561176c578102607f1c5b908002607f1c906002851615611782578102607f1c5b908002607f1c906004851615611798578102607f1c5b908002607f1c9060088516156117ae578102607f1c5b60049490941c93908002607f1c90611757565b60401c6118df565b603f600160601b8310156117e35760209290921b91601f19015b600160701b8310156117fb5760109290921b91600f19015b600160781b8310156118135760089290921b91600719015b6001607c1b83101561182b5760049290921b91600319015b6001607e1b8310156118435760029290921b91600119015b6001607f1b83101561185b5760019290921b91600019015b60005b86156118c8576040821061187157600080fd5b600187161561189757918302607f1c918101600160801b83111561189757600192831c92015b928002607f1c9260019190911b90600160801b84106118bc57600193841c9391909101905b600187901c965061185e565b604081106118d557600080fd5b6040039190911c90505b6000836118ec57816118f1565b816000035b905060016001607f1b03198112801590611912575060016001607f1b038113155b61191b57600080fd5b9695505050505050565b6000600f83810b9083900b0160016001607f1b031981128015906115e6575060016001607f1b03811315610f8757600080fd5b6000600f82810b9084900b0360016001607f1b031981128015906115e6575060016001607f1b03811315610f8757600080fd5b60008161199a5750600061067f565b816001600160801b82106119b35760809190911c9060401b5b600160401b82106119c95760409190911c9060201b5b64010000000082106119e05760209190911c9060101b5b6201000082106119f55760109190911c9060081b5b6101008210611a095760089190911c9060041b5b60108210611a1c5760049190911c9060021b5b60088210611a285760011b5b6001818581611a3357fe5b048201901c90506001818581611a4557fe5b048201901c90506001818581611a5757fe5b048201901c90506001818581611a6957fe5b048201901c90506001818581611a7b57fe5b048201901c90506001818581611a8d57fe5b048201901c90506001818581611a9f57fe5b048201901c90506000818581611ab157fe5b049050808210611ac15780611ac3565b815b935050505061067f565b600081611ad957600080fd5b60006001600160c01b038411611afe5782604085901b81611af657fe5b049050611c03565b60c084811c6401000000008110611b17576020918201911c5b620100008110611b29576010918201911c5b6101008110611b3a576008918201911c5b60108110611b4a576004918201911c5b60048110611b5a576002918201911c5b60028110611b69576001820191505b60bf820360018603901c6001018260ff0387901b81611b8457fe5b0492506001600160801b03831115611b9b57600080fd5b608085901c83026001600160801b038616840260c088901c604089901b82811015611bc7576001820391505b608084901b92900382811015611bde576001820391505b829003608084901c8214611bee57fe5b888181611bf757fe5b04870196505050505050505b6001600160801b03811115610f8757600080fdfe4f776e61626c653a206e6577206f776e657220697320746865207a65726f2061646472657373537570706c7920546f702067726561746572207468616e20696e697469616c20737570706c79426f6e64696e67204375727665207465726d696e617465732062656c6f77204554482f624e4f4d20707269636520696e707574426f6e64696e67204375727665207465726d696e617465732062656c6f7720624e4f4d20616d6f756e7420696e70757453656c6c20616d6f756e74206f6620624e4f4d2067726561746572207468616e20756e626f6e64656420616d6f756e74206f6620624e4f4d536166654d6174683a206d756c7469706c69636174696f6e206f766572666c6f77537570706c7920426f742067726561746572207468616e20537570706c7920546f7053656c6c20616d6f756e74206f6620624e4f4d20657175616c20746f207a65726f537570706c7920546f702067726561746572207468616e20696e697469616c20737570706c79206f6620624e4f4d416d6f756e74204554482073656e742077697468207265717565737420657175616c20746f207a65726f496e73756666696369656e7420426f6e6420436f6e747261637420624e4f4d20616c6c6f77616e6365526571756573742067726561746572207468616e2074686520626f6e64656420737570706c79206f6620624e4f4d457374696d6174656420616d6f756e74206f6620624e4f4d206772656174657220626f6e64656420737570706c79206f6620624e4f4da26469706673582212208cd34980d4061117ef64f588777bd8a6a60cd6103ce2cdea1faeac86cff0ec7964736f6c63430007060033536166654d6174683a206d756c7469706c69636174696f6e206f766572666c6f77",
  "linkReferences": {},
  "deployedLinkReferences": {}
}